{
  "contractName": "Election",
  "abi": [
    {
      "constant": true,
      "inputs": [],
      "name": "candidatesCount",
      "outputs": [
        {
          "name": "",
          "type": "uint256"
        }
      ],
      "payable": false,
      "stateMutability": "view",
      "type": "function"
    },
    {
      "constant": true,
      "inputs": [
        {
          "name": "",
          "type": "uint256"
        }
      ],
      "name": "candidates",
      "outputs": [
        {
          "name": "id",
          "type": "uint256"
        },
        {
          "name": "name",
          "type": "string"
        },
        {
          "name": "voteCount",
          "type": "uint256"
        }
      ],
      "payable": false,
      "stateMutability": "view",
      "type": "function"
    },
    {
      "constant": true,
      "inputs": [
        {
          "name": "",
          "type": "uint256"
        }
      ],
      "name": "voters",
      "outputs": [
        {
          "name": "aadhar",
          "type": "uint256"
        },
        {
          "name": "registered",
          "type": "bool"
        },
        {
          "name": "voted",
          "type": "bool"
        }
      ],
      "payable": false,
      "stateMutability": "view",
      "type": "function"
    },
    {
      "inputs": [],
      "payable": false,
      "stateMutability": "nonpayable",
      "type": "constructor"
    },
    {
      "constant": false,
      "inputs": [
        {
          "name": "aadhar",
          "type": "uint256"
        }
      ],
      "name": "register",
      "outputs": [],
      "payable": false,
      "stateMutability": "nonpayable",
      "type": "function"
    },
    {
      "constant": false,
      "inputs": [
        {
          "name": "_candidateId",
          "type": "uint256"
        },
        {
          "name": "aadhar",
          "type": "uint256"
        }
      ],
      "name": "vote",
      "outputs": [],
      "payable": false,
      "stateMutability": "nonpayable",
      "type": "function"
    }
  ],
  "bytecode": "0x608060405234801561001057600080fd5b506100556040518060400160405280600881526020017f53686976616e73680000000000000000000000000000000000000000000000008152506100e260201b60201c565b6100996040518060400160405280600681526020017f48617264696b00000000000000000000000000000000000000000000000000008152506100e260201b60201c565b6100dd6040518060400160405280600781526020017f55746b61727368000000000000000000000000000000000000000000000000008152506100e260201b60201c565b610202565b600160008154809291906001019190505550604051806060016040528060015481526020018281526020016000815250600080600154815260200190815260200160002060008201518160000155602082015181600101908051906020019061014c92919061015d565b506040820151816002015590505050565b828054600181600116156101000203166002900490600052602060002090601f016020900481019282601f1061019e57805160ff19168380011785556101cc565b828001600101855582156101cc579182015b828111156101cb5782518255916020019190600101906101b0565b5b5090506101d991906101dd565b5090565b6101ff91905b808211156101fb5760008160009055506001016101e3565b5090565b90565b610663806102116000396000f3fe608060405234801561001057600080fd5b50600436106100575760003560e01c80632d35a8a21461005c5780633477ee2e1461007a578063b384abef1461012f578063da58c7d914610167578063f207564e146101bf575b600080fd5b6100646101ed565b6040518082815260200191505060405180910390f35b6100a66004803603602081101561009057600080fd5b81019080803590602001909291905050506101f3565b6040518084815260200180602001838152602001828103825284818151815260200191508051906020019080838360005b838110156100f25780820151818401526020810190506100d7565b50505050905090810190601f16801561011f5780820380516001836020036101000a031916815260200191505b5094505050505060405180910390f35b6101656004803603604081101561014557600080fd5b8101908080359060200190929190803590602001909291905050506102b5565b005b6101936004803603602081101561017d57600080fd5b81019080803590602001909291905050506104b0565b604051808481526020018315151515815260200182151515158152602001935050505060405180910390f35b6101eb600480360360208110156101d557600080fd5b81019080803590602001909291905050506104f4565b005b60015481565b6000602052806000526040600020600091509050806000015490806001018054600181600116156101000203166002900480601f0160208091040260200160405190810160405280929190818152602001828054600181600116156101000203166002900480156102a55780601f1061027a576101008083540402835291602001916102a5565b820191906000526020600020905b81548152906001019060200180831161028857829003601f168201915b5050505050908060020154905083565b600015156002600083815260200190815260200160002060010160009054906101000a900460ff1615151415610353576040517f08c379a00000000000000000000000000000000000000000000000000000000081526004018080602001828103825260148152602001807f566f746572206e6f74207265676973746572656400000000000000000000000081525060200191505060405180910390fd5b600115156002600083815260200190815260200160002060010160019054906101000a900460ff16151514156103d4576040517f08c379a00000000000000000000000000000000000000000000000000000000081526004018080602001828103825260218152602001806106176021913960400191505060405180910390fd5b6001821080156103e5575060015482115b15610458576040517f08c379a00000000000000000000000000000000000000000000000000000000081526004018080602001828103825260148152602001807f696e76616c69642043616e64696461746520496400000000000000000000000081525060200191505060405180910390fd5b60016002600083815260200190815260200160002060010160016101000a81548160ff021916908315150217905550600080838152602001908152602001600020600201600081548092919060010191905055505050565b60026020528060005260406000206000915090508060000154908060010160009054906101000a900460ff16908060010160019054906101000a900460ff16905083565b600115156002600083815260200190815260200160002060010160009054906101000a900460ff1615151415610592576040517f08c379a000000000000000000000000000000000000000000000000000000000815260040180806020018281038252601b8152602001807f566f74657220697320616c72656164792072656769737465726564000000000081525060200191505060405180910390fd5b604051806060016040528082815260200160011515815260200160001515815250600260008381526020019081526020016000206000820151816000015560208201518160010160006101000a81548160ff02191690831515021790555060408201518160010160016101000a81548160ff0219169083151502179055509050505056fe566f7465722068617320616c7265616479206361737465642074686520766f7465a165627a7a723058204244fc0828caee97a1025a00483769ce66934789f036da84e0a03d43e954238a0029",
  "source": "pragma solidity >0.4.0 <0.6.0;\n\ncontract Election {\n    // cadidate info struct\n    struct Candidate {\n        uint id;\n        string name;\n        uint voteCount;\n    }\n\n    // voters info struct\n    struct Voter {\n        uint aadhar;\n        bool registered;\n        bool voted;\n    }\n\n    // Store Candidates\n    mapping(uint => Candidate) public candidates;\n    // Store Candidates Count\n    uint public candidatesCount;\n\n    //mapping of aadhar to a boolean\n    mapping(uint => Voter) public voters;\n\n    constructor () public {\n        addCandidate(\"Shivansh\");\n        addCandidate(\"Hardik\");\n        addCandidate(\"Utkarsh\");\n    }\n\n    function addCandidate (string memory _name) private {\n        candidatesCount ++;\n        candidates[candidatesCount] = Candidate(candidatesCount, _name, 0);\n    }\n    function register(uint aadhar) public {\n\n        //check if already registered\n        if(voters[aadhar].registered==true) {\n            revert(\"Voter is already registered\");\n        }\n        voters[aadhar] = Voter(aadhar,true,false);\n\n    }\n    //functuion to caste vote\n    function vote (uint _candidateId,uint aadhar) public {\n\n        //check if voter is registered\n        if(voters[aadhar].registered==false) {\n            revert(\"Voter not registered\");\n        }\n        //check if already voted\n        if(voters[aadhar].voted==true) {\n            revert(\"Voter has already casted the vote\");\n        }\n        //valid candidate\n        if(_candidateId<1 && _candidateId > candidatesCount) {\n            revert(\"invalid Candidate Id\");\n        }\n        //updating the voter\n        voters[aadhar].voted = true;\n        //incrementing the vote\n        candidates[_candidateId].voteCount++;\n    }\n\n\n}\n",
  "sourcePath": "F:/election/contracts/Election.sol",
  "compiler": {
    "name": "solc",
    "version": "0.5.8+commit.23d335f2.Emscripten.clang"
  },
  "schemaVersion": "3.0.11",
  "updatedAt": "2019-08-05T10:23:06.029Z",
  "devdoc": {
    "methods": {}
  },
  "userdoc": {
    "methods": {}
  }
}